:020000040800F2
:10000000203100205D1B00088109000883090008D9
:10001000870900088B0900088F090008000000000C
:10002000000000000000000000000000930900082C
:1000300095090008000000009709000899090008C8
:10004000771B0008771B0008771B0008771B000848
:10005000771B0008771B0008771B0008771B000838
:10006000771B0008771B0008771B0008771B000828
:10007000771B0008771B0008771B0008771B000818
:10008000771B0008771B0008771B0008771B000808
:10009000771B0008771B0008771B0008771B0008F8
:1000A000771B0008771B0008771B0008771B0008E8
:1000B000771B0008771B0008771B0008771B0008D8
:1000C000771B0008771B0008771B0008771B0008C8
:1000D000771B0008771B0008771B0008771B0008B8
:1000E0009B090008771B0008771B0008771B000896
:1000F000771B0008771B0008771B0008771B000898
:10010000771B0008771B0008771B0008771B000887
:10011000771B0008771B0008771B0008771B000877
:10012000771B0008771B0008771B0008771B000867
:10013000771B0008771B0008771B0008771B000857
:10014000771B0008771B0008771B0008771B000847
:10015000771B0008771B0008771B0008771B000837
:10016000771B0008771B0008771B0008771B000827
:10017000771B0008771B0008771B0008771B000817
:10018000771B0008771B000800F002F800F03CF82D
:100190000AA090E8000C82448344AAF10107DA45E2
:1001A00001D100F031F8AFF2090EBAE80F0013F0F8
:1001B000010F18BFFB1A43F001031847CC270000BA
:1001C000EC270000103A24BF78C878C1FAD852074B
:1001D00024BF30C830C144BF04680C6070470000C1
:1001E0000023002400250026103A28BF78C1FBD840
:1001F000520728BF30C148BF0B6070471FB502F0DF
:10020000BEFB1FBD10B510BD02F080FB1146FFF70D
:10021000F5FF00F09AFA02F09EFB03B4FFF7F2FF3D
:1002200003BC02F0A5FB000001B500BF0098411E11
:1002300000910028FAD108BD10B50021002000224D
:10024000FE4BDB7BFD4CA47B43EA042010210CE039
:10025000FA4C4B1CE35C645C43EA04221044B0F5A6
:10026000803F01D380B2401C891C2129F0DBC043B0
:10027000030AF24C2376607610BD10B500210020F1
:100280000022EE4B93F82330EC4C94F8224043EAE2
:10029000042024210CE0E94C4B1CE35C645C43EA41
:1002A00004221044B0F5803F01D380B2401C891C69
:1002B000E34B1B688B42EED8C043030ADF4C84F843
:1002C000243084F8250010BD10B5DE480068807920
:1002D000DA490870DB480068C0794870D94800687E
:1002E000007A8870D7480068407AC870D54800689E
:1002F000807A0871D3480068C07A487102208871FA
:100300000020C871087248728872C8720820087389
:1003100006204873002088730120C87308200874E1
:1003200000204874062088740420C87400200875D2
:100330000220487588750020C8750876487688764A
:10034000C876C0200877A82048770A208877C87721
:10035000BC480068807981F82000BA480068C079FC
:1003600081F82100B7480068007A81F82200B5487A
:100370000068407A81F82300B2480068807A81F8EA
:100380002400B0480068C07A81F82500AD480068B4
:10039000007F81F82600AB480068407F81F8270085
:1003A000A8480068807F81F82800A6480068C07FC0
:1003B00081F829002A21A14801F070FB0020A14901
:1003C000096881F8290010BD70B59E4800688079E1
:1003D0009A4908709B480068C0794870994800683D
:1003E000007A887097480068407AC870954800681D
:1003F000807A087193480068C07A48710220887139
:100400000020C871087248728872C8720820087388
:1004100000204873452088730020C87308743C206E
:10042000487488480068807C887486480068C07C6E
:10043000C87400200875487582480068807D8875FA
:100440000120C875002008764876C0208876A8204C
:10045000C8760A20087748777A480068807E8877CF
:1004600078480068C07EC87776480068007F81F8C9
:10047000200074480068407F81F82100002081F846
:10048000220081F8230081F82600012081F827004E
:100490006C48006890F8280081F8280069480068D6
:1004A00090F8290081F8290061252A2406E0654892
:1004B0000068005D61490855601CC4B24B2CF6DB36
:1004C00000205E4981F8240081F82500FFF7B4FE82
:1004D000FFF7D3FE4A21594801F0E0FA00205949BC
:1004E0000968487070BD574909688979534A117085
:1004F00054490968C979517052490968097A91705B
:1005000050490968497AD1704E490968897A117150
:100510004C490968C97A5171022191710021D17148
:10052000117251729172D1720821117300215173AD
:10053000452191730021D1734249096891F82F1028
:10054000022903D1002111742C2151743D490968FD
:1005500091F82F10182904D10021384A117428214C
:10056000517439490988090A344A9174364909781D
:10057000D17435490988491C334A118000212F4A1A
:1005800011755175FF2191750621D175C0219176A4
:10059000A821D1760A21117751772A490968897EE5
:1005A000917728490968C97ED17726490968097F6A
:1005B00082F8201023490968497F82F8211001211F
:1005C00082F82210F62182F823101E49096891F85A
:1005D000221082F824101B49096891F8231082F830
:1005E00025101849096891F826100906154A12685D
:1005F00092F8272041EA0241124A126892F8282014
:1006000041EA02210F4A126892F8292041EA0200C9
:100610000C49096891F82F1002290DD15121074A80
:1006200082F82610C72182F82710022182F82810AC
:10063000002182F82910401C024907E048000020F0
:10064000300600200000002008000020096891F812
:100650002F10182919D1BF49096891F82A10BE4AEC
:1006600082F82610BB49096891F82B1082F82710F0
:10067000B849096891F82C1082F82810B549096822
:1006800091F82D1082F829100C30010EB24A82F830
:100690002A10010C82F82B10010A82F82C1082F823
:1006A0002D00AC49096891F82F10022902D1602170
:1006B00082F82E10A749096891F82F10182903D144
:1006C0005021A54A82F82E10A249096891F82F10EE
:1006D000022903D11221A04A82F82F109D490968EE
:1006E00091F82F10182903D110219B4A82F82F105E
:1006F0000221994A82F83010002182F8311082F8E4
:10070000341082F835109349096891F82F100229A6
:100710000AD182F83610042182F83710052182F8B8
:100720003810B42182F839108A49096891F82F10DD
:10073000182909D10021884A82F8361082F837102A
:1007400082F8381082F83910704786B002208DF890
:10075000100000208DF811008DF812008DF81300A4
:100760008DF814008DF8150000F022FA04A900207D
:1007700000F02BFD02227949794800F038FF04226D
:100780007849794800F09FFE00F0B8FCE0E000F006
:10079000C3FE0028FAD001A800F077FD734801A934
:1007A0000EC90EC00C3840686A4908606F4802687C
:1007B000084601686E4802F02FF866480068007825
:1007C000FF2801D1012000E0002062490968497832
:1007D000FF2901D1012100E0002108405D4909689D
:1007E0008978FF2901D1012100E000210840594901
:1007F0000968C978FF2901D1012100E000210840E2
:10080000544909680979FF2901D1012100E000213B
:100810000840504909684979FF2901D1012100E0C8
:10082000002108404B49096891F82610C02901D1E0
:10083000012100E0002108404649096891F827108D
:10084000A82901D1012100E000210840B0B14148B0
:10085000006890F828000A2801D1012000E000205B
:100860003C49096891F829100A2901D1012100E0C9
:100870000021084010B1FFF727FD3AE03548006835
:100880000078022801D1012000E0002031490968E8
:10089000497809B9012100E0002108402D49096883
:1008A000897809B9012100E0002108402949096837
:1008B000C97809B9012100E00021084025490968EB
:1008C000097909B9012100E000210840214909689E
:1008D000497909B9012100E0002108401D49096852
:1008E000C97D012900D100E00021084008B1FFF7CF
:1008F0006BFD204800688068012805D91D48006804
:1009000000681D49086003E0184880681A490860BB
:1009100000240AE04FF000401749096808601648B3
:100920000068C06814490860641C12480068806848
:10093000A042EFD800200F49096888600F4840693D
:1009400000F0800020B180200C49486100208860C0
:100950001DE700000000002048000020CC1E002001
:10096000BC060020FC0600203C06002030060020CB
:10097000480200201C0000200400002000900240DB
:10098000704700BFFEE700BFFEE700BFFEE700BF05
:10099000FEE7704770477047704710B54FF48040CE
:1009A00001F0D2FD30B1012000F03EF94FF480405B
:1009B00001F0DBFD10BD000000B585B00121022073
:1009C00001F010FC0121880301F050FC00208DF89B
:1009D00010008DF813004FF48040039003A99A484B
:1009E00001F0BAF90E21012001F0D6FD4FF480404C
:1009F000019000208DF808000C208DF809000120DE
:100A00008DF80A0001A801F039FD4FF4A06001F053
:100A1000C5F828208DF8000000208DF801008DF821
:100A2000020001208DF80300684601F0BCF805B013
:100A300000BD70B5054600241121284600F0B4F928
:100A4000044644F0030422461121284600F07CF9B4
:100A500008B9002070BD1221284600F0A5F904460F
:100A600044F0200422461221284600F06DF908B90E
:100A70000020EFE70120EDE700B5AFB001214FF016
:100A8000606001F0AFFB00F0FBF800F076FE00BF05
:100A900000F07AFE0128FBD0684600F0FCF8012047
:100AA0000090002007904FF400700A9000200B90F7
:100AB0000E90119013901490159020904FF00070AC
:100AC000219000112390002025902690042028904A
:100AD000C005299040122A9080012B9040122C9042
:100AE00040002E900121684600F08FF957490860B8
:100AF0002FB000BD1CB50121072001F073FB0121BF
:100B0000880301F0B3FB4FF080614FF4C00001F0A7
:100B100089FA012001F061FD03208DF80500022013
:100B20008DF8040000208DF806008DF8070086205F
:100B300000906946464801F00FF90B220121444814
:100B400001F095F90B220221414801F090F90B22A6
:100B500007213F4801F08BF94FF46050009069463F
:100B6000394801F0F9F80B221146374801F07FF9B6
:100B70000B220C21344801F07AF90B220D21324866
:100B800001F075F9322000906946324801F0E4F82E
:100B90000B2201212F4801F06AF90B2204212D4874
:100BA00001F065F90B2205212A4801F060F91CBD0E
:100BB0007FB5FFF79FFFFFF75FFF2448006808B984
:100BC00000BFFEE70120FFF734FFFFF7F5FE04202A
:100BD00001F036F8684601F070FA64220198B0FB23
:100BE000F2F1B1F1807F00D31DE021F07F40401E83
:100BF0004FF0E022506150170F22002807DA130748
:100C00001D0E154B00F00F04241F1D5503E01307A4
:100C10001C0E124B1C5400BF00204FF0E0229061CC
:100C20000720106100BF7FBD10B504461221204689
:100C300000F0BAF800F4005020B109480078C04331
:100C40000749087010BD0000000402400C0000209D
:100C5000000002400008024018ED00E000E400E05F
:100C60001000002001B581B0002000900198009094
:100C700002E00098401E009000980028F9D10CBDB9
:100C800010B50121480601F002FB00214FF0007071
:100C900001F0FDFA10BD0121016000214160816079
:100CA000C16001614FF48041416100218161C161F6
:100CB0004FF400610162002141628162C1620163FF
:100CC00041638163C16340210164202141640021AB
:100CD0008164C164016541658165C16501668021EA
:100CE000416600218166C166016741678167C1670E
:100CF0004FF08061C0F880104910C0F884100021C6
:100D0000C0F888104FF40011C0F88C100021C0F812
:100D10009010C0F89410C0F89810C0F89C10C0F85B
:100D2000A0104FF00071C0F8A4104912C0F8A8102C
:100D30008901C0F8AC104912C0F8B0100021C0F809
:100D4000B410C0F8B810704738B503460C460021FF
:100D500000200090F648016901F01C014FF4784032
:100D600000EAC32001434FF4F86000EA8410014315
:100D700041F0020141F00101ED484261016100BF13
:100D80000098401C0090EA48016901F0010018B188
:100D9000E84D0098A842F3D3E64D0098A84201D14F
:100DA000002038BD0120FCE718B502460B460021A3
:100DB00000200090DE48016901F01C014FF47840EA
:100DC00000EAC22001434FF4F86000EA83100143B7
:100DD00021F0020141F00101D548016100BF0098F6
:100DE000401C0090D248016901F0010018B1D14CBB
:100DF0000098A042F3D3CF4C0098A04201D100202C
:100E000018BDCB48406980B2FAE72DE9F04186B0C1
:100E100004460F464FF00008002500200590C64EFE
:100E20000090C348056925F01C0501A801F045F9AB
:100E3000029EC248864205D3C148864202D245F08E
:100E400008051AE0BE48864205D3BB48864202D256
:100E500045F00C0511E0B848864203D3B9488642F4
:100E600000D20AE0B748864205D3B748864202D28C
:100E700045F0040501E045F01005AD4805614FF46B
:100E8000004200213846FFF75FFF18B9002006B086
:100E9000BDE8F081AD48FFF7E5FE206800284ED0A0
:100EA00000BF0098401C009001213846FFF77CFFEE
:100EB00000F0040018B99F4900988842F1D39D4979
:100EC0000098884201D10020E1E7002000904FF413
:100ED000805200213846FFF737FF08B90020D6E7D7
:100EE00000BF0098401C009001213846FFF75CFFCE
:100EF00000F0200018B98F4900988842F1D38D493D
:100F00000098884201D10020C1E700200090102104
:100F10003846FFF749FF804608F0040018B14FF447
:100F20000060206201E00020206208F0020010B1A1
:100F30000020606116E04FF48040606112E0206A9A
:100F4000C0F3CF006169C1F34F0140EA0102002103
:100F50003846FFF7F9FE08B9002098E76FF07F40A8
:100F6000FFF780FE7248056879480540D4E9010121
:100F70000843E16808432169084361690843A1699E
:100F80000843E1690843216A0843616A0843A16A8A
:100F90000843E16A0843216B0843616B084305433A
:100FA00063480560D4E90E010843216C0843616C75
:100FB0000843A16C0843E16C0843216D0843616D4F
:100FC00008435B494860A06D8860E06DC8600846D2
:100FD00085694FF641700540B4F86010606E40EAD4
:100FE0000140A16E0843E16E0843216F0843616F21
:100FF000084305434E488561D4E91E0108434C4926
:10100000C8615448856954480540D4E92001084323
:10101000D4F888100843D4F88C100843D4F8901002
:101020000843D4F894100843D4F898100843D4F82F
:101030009C100843D4F8A010084305434548856137
:10104000D4E929010843D4F8AC100843D4F8B0100F
:101050000843D4F8B41040EA8100D4F8B81008432B
:1010600040F400003B4908600846006840F08000FA
:10107000086001200BE730B13649896941F002016F
:10108000344A916105E03349896921F00201314A0E
:101090009161704730B12F49896941F400512D4A5F
:1010A000916105E02B49896921F40051294A916138
:1010B000704730B11E49096841F004011C4A1160B3
:1010C00005E01B49096821F00401194A11607047C5
:1010D0002048806940F480101E498861704730B113
:1010E0001349096841F00801114A116005E01049EF
:1010F000096821F008010E4A1160704700B501200F
:10110000FFF7EDFFFFF7E4FF0120FFF7D2FF01201B
:10111000FFF7C0FF0120FFF7AEFF00BD002004492C
:10112000896901F0010109B1012000E00020704748
:1011300000800240FFFF040000879303002D31016F
:10114000C00E160200E1F50580D1F008FFFF0F0088
:101150000F8120FF00900240233FDEF8FB488069AA
:1011600040F00100F9498861704730B1F749896959
:1011700041F00101F54A916105E0F449896921F0E6
:101180000101F24A9161704701460020EF4A926BDB
:101190000A400AB1012000E000207047014600200B
:1011A000EA4A926B0A400AB1012000E00020704731
:1011B00029B1E64AD26B8243E44BDA6304E0E34AA6
:1011C000D26B0243E14BDA63704710B50B794C796F
:1011D00043EA0422DD4B03441A64CB781B068C7867
:1011E00043EA04434C7843EA04230C7843EA0402BC
:1011F000D64B03445A6410BD0246D44B1344186CBA
:10120000030A4B710871D14B1344586C030ECB7019
:10121000030C8B70030A4B700870704741B1CB4AC6
:101220000244126C42F00042C84B03441A6407E0C7
:10123000C64A0244126C22F00042C44B03441A64B2
:101240007047082908D0C14A0244126C42F080421B
:10125000BE4B03441A6407E0BC4A0244126C22F0FD
:101260008042BA4B03441A647047B84A0244126C75
:1012700022F07C52B54B03441A64B44A0244126C07
:101280000A43B24B03441A6470471EB50021002282
:10129000009201920292AE4A12681268C2F30D42A5
:1012A000111F0091AB4A12689268012A05D9A94A18
:1012B000126812689268019203E0A54A1268926867
:1012C0000192A34A12680292A14A1268D268A04B06
:1012D0001A609DE81C0080E81C001EBD0FB50021AF
:1012E00001910291039100916FE00099491C0091D6
:1012F00097490968096801F40071A1B19449096826
:10130000096801F4807171B991490968914A1268BC
:10131000116001218F4A126891608D490968C9687E
:101320008B4A116051E08A490968096801F48071AB
:1013300091B987490968096801F4007161B9854963
:1013400009688968491C834A126891608049096864
:10135000C9687F4A116038E07D4909687D4A126892
:1013600051607C4909688968491C7A4A1268916011
:10137000784909688968012904D175490968754A5D
:1013800012681160724909680968C1F30D41091FAB
:101390000191704909688968012905D96D49096871
:1013A00009688968029103E06949096889680291BE
:1013B00067490968039166490968C968644A116008
:1013C00001A90EC980E80E000FBD614909680968CE
:1013D00001F0004111B90099042986D301A90EC971
:1013E00080E80E0000BFEFE770B50246002300253D
:1013F000002459480068006800F0004008B100204F
:1014000070BD5548016840F2F450824208DD92FBFD
:10141000F0F392FBF0F600FB162010B15B1C00E02D
:101420000123012B1AD14C480068006840F040505D
:10143000494E36683060C2F30C00474E3668706023
:1014400045480068006840F00040434E3668306010
:1014500041480068C068404E306028E0002422E027
:101460003CB93D480068006840F080503A4E36680C
:10147000306040F2F4504860581EA0420DD1086818
:1014800040F000500860581EC0EBC01000EB400058
:10149000A2EB8005C5F30C004860086840F00040EE
:1014A0000860C968641C9C42DAD32B4801602B4851
:1014B000406900F0040020B10420284E7061002033
:1014C000706001209CE770B50C4613460021204D4A
:1014D000286000BF18E000EB41124FF00045156096
:1014E00044F2F4555560C1EBC11505EB450504EB1D
:1014F000850595605D1E8D4204D900EB41152035B0
:10150000D56000E0D060491C9942E4D3134DE860F7
:10151000134D104E356070BD0D480068006800F036
:101520000040F8B90A480068006800F48070C8B14B
:1015300007480068074909684860064800688068ED
:10154000401C0449096888600120704700800240FF
:10155000180000201C000020140000200090024011
:10156000B42A0020F9480068006800F00040F0B993
:10157000F6480068006800F40070C0B1F3480068E5
:10158000006800F4807090B9F0480068F04909687C
:1015900008600020EE49096848600120EC490968AC
:1015A0008860EA480068C068E84908601DE0E748CC
:1015B0000068006800F00040B8B9E44800680068BE
:1015C00000F4007088B9E1480068006800F4807099
:1015D00058B9DF4800688068401CDD4909688860A8
:1015E000DA480068C068D94908600020ADE730B526
:1015F0000C4613460021D74D286000BF15E000EBD4
:1016000041124FF480151560C1EBC11505EB45057E
:1016100004EB850595605D1E8D4204D900EB4115F4
:101620002035D56000E0D060491C9942E7D3CA4D0F
:10163000286130BD0246002013680B400BB1012029
:1016400000E00020704701460868C0F3C3007047FF
:10165000016841F000410160704721B1026842F029
:101660008042026003E0026822F08042026070471C
:1016700002680A430260704702680A4302607047CA
:1016800021B1026822F00062026003E0026842F0C9
:1016900000620260704721B1026842F48012026069
:1016A00003E0026822F480120260704721B10268F0
:1016B00022F08062026003E0026842F08062026011
:1016C000704710B541EA024443682343436010BDAC
:1016D0000246002013680B400BB1012000E00020FF
:1016E00070470246002013690B400BB1012000E057
:1016F00000207047016841F00041016070470146D9
:101700000868C0F30D40704721B1426822F00042E2
:10171000426003E0426842F0004242607047024685
:1017200019B15068C0F30C4070479088C0F30C00AA
:10173000FAE700B502460023106800F0004058B9EF
:10174000106800F4004038B9106800F4807018B1D7
:101750001046FFF7D4FF0346184600BD30B17E495E
:10176000096841F080017C4A116005E07A49096806
:1017700021F08001784A116070477748006840F096
:10178000010075490860704700207349096801F03D
:10179000010109B1012000E000207047014600204E
:1017A0006D4A52690A400AB1012000E000207047EA
:1017B00069494861704729B1674AD2690243664B5B
:1017C000DA6104E0644AD2698243634BDA617047AC
:1017D00001460020604A52690A400AB1012000E037
:1017E000002070475C49486170475B48406900F0E1
:1017F000010070475848406900F0400070470020E1
:101800005549896901F4801109B1012000E00020E7
:10181000704701460020504A126A0A400AB101206E
:1018200000E0002070474C48006AC0F34A4070470F
:101830004948006A80B270474748806C7047464804
:10184000C06C70474448006D70474348406D704716
:10185000002041494860704700203F498860704738
:101860003D494862704770B506460D460024002188
:101870003046FFF799FA044615B144F4804402E07B
:101880004BF6FF700440224600213046FFF75CFA19
:1018900008B1012070BD0020FCE73048C06A40F06C
:1018A00000402E49C86270470146002000BF04E096
:1018B00051F82020294B9A62401C0828F8D3704721
:1018C00030B12649C96A41F40071244AD16205E069
:1018D0002249C96A21F40071204AD1627047014649
:1018E00000201E4AD26A0A400AB1012000E000200E
:1018F000704730B11949C96A41F00401174AD162F1
:1019000005E01649C96A21F00401144AD162704702
:1019100030B11249C96A41F00201104AD16205E0B2
:101920000E49C96A21F002010C4AD162704730B1F8
:101930000A49C96A41F00101084AD16205E0074934
:10194000C96A21F00101054AD162704718000020E0
:101950001C00002014000020009002400080024083
:101960007A48006840F030007949C1F800017047BA
:101970007648006820F020007549C1F8000108464B
:10198000D0F8000140F01000C1F80001704738B1F4
:101990006E49096841F008016D4AC2F8001106E07D
:1019A0006A49096821F00801694AC2F800117047C4
:1019B00038B16649096841F00401654AC2F800116E
:1019C00006E06249096821F00401614AC2F8001189
:1019D000704738B15D49096821F002015C4AC2F8DC
:1019E000001106E05949096841F00201584AC2F85D
:1019F000001170475548006840F001005449C1F893
:101A00000001704700F0805292B120F0805039B14F
:101A10004E4A0C32126882434D4BC3F80C2117E03A
:101A20004A4A0C3212680243494BC3F80C210FE0BA
:101A300039B1464A103212688243454BC3F810212F
:101A400006E0424A103212680243414BC3F81021AB
:101A500070470146002001F080526AB13B4A121DD6
:101A600012680A4032B1394A0C3212680A400AB987
:101A700001200EE000200CE0344A083212680A40CF
:101A800032B1324A0C3212680A400AB9012000E031
:101A90000020704701462E480858704710B503468D
:101AA0000A4600212B480068006800F0004008B199
:101AB000002010BD002105E0585C264C2468A46875
:101AC0006054491C9142F7D3C2F30C00214C2468A6
:101AD000606020480068006840F040501D4C246859
:101AE00020601C480068006840F00040194C2468E1
:101AF00020601948406900F0040020B10420164C11
:101B000060610020606013480068006800F4801085
:101B100028B110480068C0680E4C206014E00D48E1
:101B20000068006800F4001020B10B480069094CFF
:101B3000206009E008480068C0F384040548006894
:101B400010302044034C20600120B2E700810240A5
:101B500000800240140000200090024009488047A5
:101B600009480047FEE7FEE7FEE7FEE7FEE7FEE77F
:101B7000FEE7FEE7FEE7FEE704480549054A064B97
:101B800070470000E526000889010008202B00208E
:101B900020310020202D0020202D0020324901433B
:101BA000324A1160704770B5002100230F22C478BB
:101BB0001CB32E4C246804F4E064C4F5E064C4F360
:101BC0000721C1F10404E3B20A4144789C40E1B228
:101BD0008478144021430C07210E254C057861556B
:101BE000047804F01F050124AC4005786D11AD00A8
:101BF00005F1E025C5F8004109E0047804F01F056F
:101C00000124AC401B4D0678761145F8264070BD86
:101C1000194A0A400243154B1B1F1A60704739B11D
:101C2000124A121D12680243104B1B1D1A6006E077
:101C30000E4A121D126882430C4B1B1D1A6070471E
:101C4000042808D14FF0E021096941F004014FF068
:101C5000E022116107E04FF0E021096921F0040161
:101C60004FF0E022116170470000FA050CED00E032
:101C700000E400E080E100E080FFFF1F10B50446B3
:101C80008C48844208D10121084600F000FB002165
:101C9000012000F0FCFA5EE08748844208D101216F
:101CA000022000F0F4FA0021022000F0F0FA52E0E5
:101CB0008248844208D10121042000F0E8FA002182
:101CC000042000F0E4FA46E07D48844208D1012176
:101CD000082000F0DCFA0021082000F0D8FA3AE0F1
:101CE0007848844208D10121102000F0D0FA002168
:101CF000102000F0CCFA2EE07348844208D1012174
:101D0000202000F0C4FA0021202000F0C0FA22E0D8
:101D10006E48844208D10121402000F0B8FA002129
:101D2000402000F0B4FA16E06948844208D101214D
:101D3000802000F0ACFA0021802000F0A8FA0AE030
:101D40006448844207D10121801500F0A0FA0021E7
:101D5000A01500F09CFA10BDF0B50A460021002342
:101D6000002400BF3DE0012505FA01F3156805EAEE
:101D700003049C4234D105684F000326BE40B5439E
:101D8000056015794E00B540066835430560157944
:101D9000012D02D01579022D16D185684F0003263A
:101DA000BE40B543856055794E00B54086683543E1
:101DB0008560456801268E40B54345604568967943
:101DC0008E40B6B235434560C5684F000326BE401D
:101DD000B543C560D5794E00B540C6683543C5608A
:101DE000491C1029BFD3F0BD4FF6FF7101600021DF
:101DF000017141718171C171704708B54FF4803232
:101E00000092009A0A430092009AC261C161009A4E
:101E1000C261C2690092C269009208BD02460020F8
:101E200013690B400BB1012000E000207047014610
:101E3000086980B270470246002053690B400BB11D
:101E4000012000E0002070470146486980B27047D9
:101E500001837047418370470AB1018300E04183E9
:101E600070474161704742694A4042617047F0B52E
:101E7000002300244D07ED0E02FA05F3CE1000F109
:101E8000200555F826504E07F70E0F26BE40B543E5
:101E9000CF1000F1200646F82750CE1000F12005A3
:101EA00055F8265045EA0304CE1000F1200545F808
:101EB0002640F0BD0000024000040240000802403D
:101EC000000C0240001002400014024000180240C2
:101ED000001C024000200240FA48006840F0010067
:101EE000F84908600020F74908310860F5480068A3
:101EF000F5490840F3490860F448091D0860081FC7
:101F0000006820F48020091F08600020ED490C3192
:101F1000086070470021EB4A921C1170114608704E
:101F2000704710B501460022002300204A11012A03
:101F300002D1E44C236808E0022A03D1E14C70345A
:101F4000236802E0DF4C7434236801F01F0201248F
:101F500094401C400CB1012000E0002010BD38B5B9
:101F6000002000900024002500BF3120FFF7D9FF9A
:101F700005460098401C00900098B0F5A06F01D075
:101F8000002DF2D03120FFF7CCFF08B1012400E092
:101F90000024204638BD01460020CA4A106820F0BF
:101FA000F80040EAC10010607047C94908607047F6
:101FB0000021C44A703211701170012802D0042827
:101FC0000AD104E00121BF4A7032117005E00521F9
:101FD000BC4A7032117000E000BF00BF7047BD49BD
:101FE0000860704770B5049C41EA82150126C6EB73
:101FF000530645EA0645054345EA0465B14E361DDC
:10200000356070BDB24908667047820142EA0172CC
:10201000AC4B84331A607047AD4988667047AC4951
:10202000C864704702460020A64B0833186820F0A9
:10203000EC6042EA01031843A24B08331860704772
:10204000024600209F4B0833186820F0784042EA8F
:10205000010318439B4B083318607047014600206A
:10206000984A0832106820F0030008431060704757
:1020700094480830006800F00C00704701460020CA
:10208000904A0832106820F0F00008431060704752
:10209000014600208B4A0832106820F4E0500843C3
:1020A0001060704701460020864A0832106820F40C
:1020B000604040EAC10010607047F0B50021002286
:1020C00000240225002602237E4F08373F6807F0D0
:1020D0000C0121B1042905D0082937D105E07E4F34
:1020E000076036E07D4F076033E0764F3F1D3F6865
:1020F000C7F38056734F3F1D3F6807F03F036EB133
:10210000764FB7FBF3F7DFF8BCC10CF1040CDCF839
:1021100000C0CCF3881C07FB0CF40CE06E4FB7FB3F
:10212000F3F7DFF8A0C10CF1040CDCF800C0CCF32D
:10213000881C07FB0CF4634F3F1D3F68C7F3014742
:102140007F1C7D00B4FBF5F7076002E0624F07607B
:1021500000BF00BF5B4F08373F6807F0F001090977
:102160005F4F7A5C0768D7404760564F08373F6833
:1021700007F4E051890A5A4F7A5C4768D740876074
:10218000504F08373F6807F46041490B544F7A5C61
:102190004768D740C760F0BD002100F44072B2F537
:1021A000407F0AD1474A0832116821F4F8114D4A9C
:1021B00002401143434A08321160424A70321268A9
:1021C000C0F30B031A433F4B70331A607047414909
:1021D0004439086070473F494039086070474249B8
:1021E0000860704739B1374A303212680243354BC4
:1021F00030331A6006E0334A303212688243314B82
:1022000030331A60704739B12E4A343212680243B3
:102210002C4B34331A6006E02A4A34321268824367
:10222000284B34331A60704739B1264A3832126865
:102230000243244B38331A6006E0224A38321268CF
:102240008243204B38331A60704739B11D4A4032FF
:10225000126802431B4B40331A6006E0194A4032B1
:1022600012688243174B40331A60704739B1154AE0
:10227000443212680243134B44331A6006E0114A99
:102280004432126882430F4B44331A60704739B1AD
:102290000C4A1032126802430A4B10331A6006E0EF
:1022A000084A103212688243064B10331A60704796
:1022B000E1B1044A143212680243024B14331A602B
:1022C00019E0000000380240FFFFF6FE1030002445
:1022D00000004742800E47420024F40000127A00BA
:1022E00024000020FFFCFF0F5C0147425B4A12689C
:1022F00082435A4B1A60704739B1584A121D12680E
:102300000243564B1B1D1A6006E0544A121D126808
:102310008243524B1B1D1A60704739B14F4A0C3231
:10232000126802434D4B0C331A6006E04B4A0C32E4
:1023300012688243494B0C331A60704739B1474ADF
:10234000103212680243454B10331A6006E0434ACC
:10235000103212688243414B10331A60704739B112
:102360003E4A3C32126802433C4B3C331A6006E062
:102370003A4A3C3212688243384B3C331A60704709
:1023800039B1364A403212680243344B40331A6046
:1023900006E0324A403212688243304B40331A60C2
:1023A000704739B12D4A4432126802432B4B4433F3
:1023B0001A6006E0294A443212688243274B4433AC
:1023C0001A60704739B1254A4C3212680243234BD8
:1023D0004C331A6006E0214A4C32126882431F4B8C
:1023E0004C331A60704739B11C4A503212680243AC
:1023F0001A4B50331A6006E0184A50321268824372
:10240000164B50331A60704739B1144AD21F1278F4
:102410000243124BDB1F1A7006E0104AD21F1278DB
:1024200082430E4BDB1F1A7070470C486030006807
:1024300040F0807009496031086070470146002013
:10244000064A083A12680A400AB1012000E000205A
:1024500070470249891F0870704700001438024015
:10246000002044490860091D0860091D0860091D15
:10247000086041483F4914310860704700213D49D8
:102480008279002A3AD00A46126803689A430B46BA
:102490001A600A1D126803689A430B1D1A600279BC
:1024A00011440A6803681A430A60324A0832126803
:1024B00003689A432F4B08331A601A1D1268036889
:1024C0009A432C4B0C331A604279102A0ED11A1FF2
:1024D000126803681A43274B08331A601A1D1268E2
:1024E00003681A43234B0C331A600DE021494279EB
:1024F00011440A6803681A430A6005E0027911442E
:102500000A6803689A430A607047002101600171FC
:102510000C21417100218171704716491031096801
:102520000143144A10321160704701460020114ADD
:10253000143212680A400AB1012000E000207047FE
:102540000C49143108607047014600200022094BF5
:102550001B6803EA0102074B14331B680B4013B1DD
:102560000AB1012000E000207047024914310860E0
:1025700070470000003C0140FFFF7F0010B50121C3
:102580008803FFF7DBFE00214FF48040FFF7D6FE03
:1025900010BD1A490860704730B500228B071C0F28
:1025A0000F2303FA04F2154B08338C1053F8243030
:1025B0009343124C08348D1044F8253023468C1078
:1025C00053F824308C07240F00FA04F423430B4CF7
:1025D00008348D1044F8253030BD09490860704733
:1025E000084908607047002004492031096801F457
:1025F000807109B1012000E00020704700380140DF
:10260000DC002742000427420CB500200190009016
:102610007648006840F480307449086000BF734811
:10262000006800F4003000900198401C0190009870
:1026300018B90198B0F5A06FF1D16C48006800F4AA
:10264000003010B10120009001E0002000900098BF
:10265000012846D165484030006840F08050634909
:10266000403108606248006840F48040604908607A
:102670005E48083000685D49083108600846006817
:1026800040F4004008600846006840F4A05008602C
:102690005848091F0860081F006840F08070091F33
:1026A000086000BF5148006800F000700028F9D0B1
:1026B00040F20560504908604C480830006820F03E
:1026C00003004A49083108600846006840F00200EB
:1026D000086000BF45480830006800F00C0008287A
:1026E000F8D10CBD10B54548006840F4700043496E
:1026F00008603E48006840F001003C490860002046
:102700003A4908310860394800683D49084037496E
:1027100008603C48091D0860081F006820F48020FC
:10272000091F0860002031490C310860FFF76CFF79
:102730004FF0006031498039086010BD70B500204D
:102740000022022300240221284D08352D6805F0BF
:102750000C0020B1042806D0082834D107E02A4D07
:102760002A4E356033E02A4D284E35602FE01F4D4C
:102770002D1D2D68C5F380541C4D2D1D2D6805F0B1
:102780003F0154B1224DB5FBF1F5184E361D3668A8
:10279000C6F3881605FB06F209E01B4DB5FBF1F503
:1027A000124E361D3668C6F3881605FB06F20F4D2D
:1027B0002D1D2D68C5F301456D1C6B00B2FBF3F5B3
:1027C000124E356003E0104D104E356000BF00BF63
:1027D000064D08352D68C5F303150E4E705D0B4D83
:1027E0002D68C540094E356070BD000000380240BC
:1027F0000070004008544007003C024088ED00E0B3
:10280000FFFFF6FE103000240024F4003400002006
:1028100000127A0038000020032A40F2308010F0C5
:10282000030C00F0158011F8013BBCF1020F62446B
:1028300098BF11F801CB00F8013B38BF11F8013BFC
:10284000A2F1040298BF00F801CB38BF00F8013BA9
:1028500011F0030300F02880083AC0F0088051F816
:10286000043B083A51F804CBA0E80810F5E7121D24
:102870005CBF51F8043B40F8043BAFF30080D20743
:1028800024BF11F8013B11F801CB48BF11F8012B0F
:1028900024BF00F8013B00F801CB48BF00F8012B32
:1028A000704770477047704710B5203AC0F00B80F2
:1028B000B1E81850203AA0E81850B1E81850A0E844
:1028C0001850BFF4F5AF5FEA027C24BFB1E818509E
:1028D000A0E8185044BF18C918C0BDE810405FEA0E
:1028E000827C24BF51F8043B40F8043B08BF70478A
:1028F000D20728BF31F8023B48BF11F8012B28BF8F
:1029000020F8023B48BF00F8012B7047754600F0E5
:102910002BF8AE4605006946534620F00700854671
:1029200018B020B5FFF728F9BDE820404FF00006A9
:102930004FF000074FF000084FF0000B21F00701A7
:10294000AC46ACE8C009ACE8C009ACE8C009ACE8EA
:10295000C0098D46704710B50446AFF3008020468D
:10296000BDE81040FDF759BC00487047C02A002060
:1029700001491820ABBEFEE72600020070474FF069
:102980004070E1EE100A7047A829000800000020FE
:1029900048000000C4010008F02900084800002099
:1029A000D8300000E0010008000000000000000036
:1029B0000000000000000000000000000000000017
:1029C0000000000000000000000000000000000007
:1029D000010203040102030406070809007A030A3E
:1029E00000000000000000000102030406070809BF
:040000050800018965
:00000001FF
